:06000000020021020724AA
:03000B000203628B
:0300130002088957
:03001B000202FDE1
:13007A00E4F508F509F50AF50B750C20F50DF50E02001ECF
:03001E000201F7E5
:20008D0090FA407440F090FA41E4F090FA427440F090FA437460F090FA44E4F090FA457460
:2000AD0060F090FA467470F090FA47E4F090F8097407F090F80A741FF090F8107460F0909D
:2000CD00F811E4F090F08FF090FA6F741FF090FA607402F090FA61E4F090FA64F090FA65DF
:2000ED00F090FA66F090FA67F090FA62740FF090FA6F741FF090FA14E0FF74FD5FF090FAA0
:20010D0015E0FF74024FF090FA217407F0E0FF5307FB90FA21EFF090FA68E054F7F090FABE
:20012D0069E054F7F090FA6AE054F7F090FA6BE054F7F090FE00E4F07480F090FA5074205B
:20014D00F090FE01E4F090FE027445F0758911758CF0758A5F758DF0758B5F75B80175882C
:20016D001075980075A8802290FA38E0FF30E1012290F0007405F090F21074FFF090F21150
:20018D007402F090F21204F090F2137424F090F000E4F090FA6B14F090F014E0FF540360D0
:2001AD00F722AF8290F293E4F090F293E0FE20E6F890F29CE545F0E4F0EFF07E007F009096
:2001CD00F29CE4F00EBE00010FC3EE9405EF6480948040EB90F28C7408F090F28DE4F0908B
:2001ED00F28EF090F2937440F02212008D12017512064A12031B1203E7120400120938ACDD
:20020D000FAD10AE11AF12050FE4B50F0C0510B510070511B511020512C3ED9420EE940001
:20022D00EF94004020E50C9420E50D9400E50E94005012050BE4B50B0C050CB50C07050D0F
:20024D00B50D02050EE50A60B3C3E50C9420E50D9400E50E940040A4E508242CFEE5093402
:20026D0010FF8E828F83E493605A7545007582001201AF7545007582001201AF75450075FA
:20028D0082001201AF7545007582001201AFE508242CF582E5093410F583E493FF7401252C
:2002AD0008FDE43509FEED242CF582EE3410F583E493F5458F821201AF7545007582001267
:2002CD0001AF8011E4F50BF50CF50DF50EF50FF510F511F51274022508F508E43509F50910
:1002ED00C3648094A05003020209750A000202093A
:20102C00123456780000000000000000000000000000000000000000000000000000000090
:20104C00000000000000000000000000000000000000000000000000000000000000000084
:20106C00000000000000000000000000000000000000000000000000000000000000000064
:20108C00000000000000000000000000000000000000000000000000000000000000000044
:2010AC00000000000000000000000000000000000000000000000000000000000000000024
:2002FD00C007C006C0D075D000C28EAF198F8DAE188E8B0517D28ED0D0D006D0073290FAE7
:20031D0060E0FFBF0F0875183C7519F6802390FA60E0FF7E0074022FF545E43EF54690099F
:20033D00C4120FF0AE82AF83C3E49EF518E49FF519751700C28ED2AB740F55894410F589FA
:20035D002285178222C0E0C082C083C007C0D075D000C28C758AE6758C96D28C90FA15E0B6
:20037D00FF20E102805405130514C3E51495165002804775140074E12515500B90FA157453
:20039D0001F0751500803374F62515500B90FA15E0FFF4F005158022E5157002801C90FA63
:2003BD0015E0FF30E00B90FA15E0FF74FE5FF0800990FA15E0FF74014FF0D0D0D007D0834D
:2003DD00D082D0E032AE828E162275166475130090FA157403F0751400751500D2AFD2A94A
:1703FD00D28C2290FA157402F07515012290FA157403F07515002205
:20041400AF8290F80BE4F01F90F80CEFF0E4B54602800E7401B5460280147402B5461C801C
:200434001490F80DE545F090F80EE545F02290F80DE545F02290F80EE545F022AE82AF830E
:200454008E047D0090F1CCECF08F0690F1CDEEF090F1CEE4F090F1D37440F090F1D3E0FF41
:2004740020E6F890F0487405F022AE82AF83EE4F6058754500754600758220C007C0061295
:200494000414754580754601758220120414D006D00790F1C57480F090F1C6E4F090F1C7BF
:2004B400F090F1CAE523F08E047D0090F1CCECF08F0690F1CDEEF090F1CEE4F090F1D37411
:2004D40088F090F1D3E0FF20E7F822AE82AF83EE4F6058754500754600758220C007C006CC
:2004F400120414754580754601758220120414D006D00790F2057480F090F206E4F090F291
:2005140007F090F20AE524F08E047D0090F20CECF08F0690F20DEEF090F20EE4F090F213D7
:200534007488F090F213E0FF20E7F8229000007455F09000017453F09000027442F09000CD
:20055400037453F0900004E52EF0900005E52FF0900006E530F0900007E531F0AF26900000
:2005740008EFF0AF27900009EFF0AF2890000AEFF0AF2990000BEFF090000CE525F0752461
:200594000090000D1204DF906006E4F0F526F527F528F5292290F213E0FF20E1F890F0105A
:2005B400E0FF53072090F217E0FE20E709EF70F5906006E4F02290F213E0FF20E6F890F213
:2005D40053E0FF20E6F890F293E0FF20E6F890F2D3E0FF20E6F890F21C7455F07453F07431
:2005F40042F07453F090F21CE52EF0E52FF0E530F0E531F0AF2690F21CEFF0AF2790F21C88
:20061400EFF0AF2890F21CEFF0AF2990F21CEFF0E525F090F20C740DF090F20DE4F090F260
:200634000EF090F2137440F0906006E4F0F526F527F528F52922906000E4F0906005F090D8
:200654006006F0F52290F2057480F090F206E4F090F207F090F2087410F090F20AE4F090EB
:20067400F2457480F090F246E4F090F247F090F2487410F090F24AE4F090FA38E0FF30E166
:200694004B90F009E0FF530707BF0405752204802390F009E0FF540760028005752200806B
:2006B4001390F009E0FF530707BF01057522018003752200D2AAD2A890F030740AF0E4F5E6
:2006D40026F527F528F529F52502054090F0007406F090F2407402F090F28C7436F090F2EC
:2006F4008D74D0F090F28E7498F090F000E4F090F030740AF090F0087484F090FA38E04451
:2007140002F0D2AAD2A87FFA8F061EEEFF70F922C0E0C082C083C007C006C005C004C0033B
:20073400C002C001C000C0D075D00090F027E0FF906000F0EF30E50690F0277420F0EF30D3
:20075400E40690F0277410F0EF30E73690F0277480F090F009E0FE530607BE040575220490
:20077400802090F009E0FE54077004F522801390F009E0FE530607BE0105752201800375CA
:200794002200EF30E60690F0277440F090F087E0FE906004F090F086E0FD906003F090F0BE
:2007B40082E0FC906002F090F080E0FB906001F0EC30E70690F0827480F0EC30E60690F0B2
:2007D400827440F0EB30E06190F0807401F090F048E0FA30E753C00590F0B8E0F51A90F0A6
:2007F400B9E0F51B90F0BAE0FA90F0BBE0F9E4FD4AF51CE94DF51D90F0BCE0FD90F0BDE05A
:20081400FA79008D007D00E948F51EEA4DF51F90F0BEE0FD90F0BFE0FA79008D007D00E918
:2008340048F520EA4DF521D00590F082E0FA30E50690F0827420F090F081E0FA30E4069023
:20085400F0817410F090F081E0FA30E50690F0817420F0EC4B4D4E4F6002C2A8D0D0D000C7
:20087400D001D002D003D004D005D006D007D083D082D0E032C0E0C082C083C007C006C09F
:20089400D075D00090F020E0540AFF30E11890F030E0FE74FD5EF090F0207402F0906005E1
:2008B400E0FE74024EF0EF30E31890F030E0FF74F75FF090F0207408F0906005E0FF7408D3
:2008D4004FF0D0D0D006D007D083D082D0E03290F030740AF090F213E4F090F253F090F223
:2008F40093F090F2D3F0227460551AFF600ABF2002800CBF4017800E120C66AF82801012E6
:200914000CADAF828009120CDAAF8280027F00EF7011E520452160047F0880027F0290F0DD
:2009340048EFF022906002E0FF906001E0FE4FFD906003E04205906004E04205906000E069
:20095400FC4D6079EC603BEC30E62590F008E0FD747F5DF01208E390FE88E4F090FE8274A3
:2009740010F090FE88E0FDBD02F890F0087480F0906000E0FD30E7031208E3906000E4F0A5
:200994008039EF54C0601C1208E390F092E4F090F096F0906002E0FF30E60F90F07A7401BD
:2009B400F08007EE30E0031208FB906001E4F0906002F0906003F0906004F0D2A890F2DA52
:2009D400E0601B90F2D37440F0750A01906005E0FF74F75FF090F030E0FF74084FF0906067
:2009F40005E0FF20E103020B4390F25AE0FFBF1F028003020B29E4F526F527F528F5299071
:200A1400F25CE0FF90F25CE0FE90F25CE0FD90F25CE0FCBF55028003020B1FBE5302800309
:200A3400020B1FBD42028003020B1FBC43028003020B1F90F25CE0FF8F2E90F25CE0FF8F50
:200A54002F90F25CE0FF8F3090F25CE0FF8F3190F25CE0FF8F2A752B00752C00752D009071
:200A7400F25CE0FF7E007D008D048E058F06E4422AEE422BED422CEC422D90F25CE0FF7EE5
:200A9400008E048F05E4FE422AEE422BED422CEC422D90F25CE0FCE4FFFEFDEF422AEE429A
:200AB4002BED422CEC422D90F25CE0FF74805FF53290F25CE0F53390F25CE0F5447F00EFBF
:200AD4002434F990F25CE0FEF70FBF100040F090F2537440F0120CDEE5827027752501E5FD
:200AF4002A452B452C452D700890F2137402F08012E532600890F2137402F0800690F2538B
:200B14007402F09060067401F0801290F2537440F0C4F0800890F2537440F0C4F090600597
:1A0B3400E0FF74FD5FF090F030E0FF74024FF0906006E0E060030205A922D9
:200B4E0090F0487401F0227F00C3E51C947FE51D94005005120B4E7F018F8222AF1D7E008F
:200B6E00BF01028014BF02028041BF0603020BEFBF2203020C20020C4F7F00EF90302C936D
:200B8E00FD90F1DCF00FBF120040F0E5209412E52194005006AD20AF2180047D127F008D96
:200BAE00828F831204507E01020C4FC3E5209447E52194005006AD20AF2180047D477F005A
:200BCE007F00C3EF9D500DEF90303E93FC90F1DCF00F80EE7F008D828F831204507E018091
:200BEE00607F00EF9030C493FD90F1DCF00FBF0A0040F0E520940AE52194005006AD20AFA1
:200C0E002180047D0A7F008D828F831204507E01802F7F00EF90308593FD90F1DCF00FBF08
:200C2E003F0040F0E520943FE52194005006AD20AF2180047D3F7F008D828F831204507E0E
:200C4E00018E82227F00C37401951CE4951D4005120B4E7F018F82227405B51B02800E74A5
:200C6E0006B51B02800A7409B51B0B8006020B55020B6A020C527582002290F1DCE4F0C3E0
:200C8E00E5209401E52194005006AE20AF2180047E017F008E828F83120450758201227486
:200CAE0009B51B02800E740AB51B02801174FEB51B16801190F0487405F075820122120B8B
:100CCE004E75820122020C887582002275820022E6
:20302C001201000200000040FE13015210010000000109024700020100804B090400000389
:20304C00080650000705810240000007050202400000070583030800000904010002030139
:20306C000100092101010001223F00070583030800010705040308000105010906A1010542
:20308C000719E029E7150025017501950881029501750881019505750105081901290591B8
:2030AC000295017503910195067508150025650507190029658100C00A0600020000004065
:0230CC00010001
:200CDE00752501AF34BF00028037BF0303020DBCBF0603020DF6BF1202802ABF1A03020D3B
:200CFE008EBF1E028014BF2302804DBFC603020DF6BFC703020DF6020F89752500758201DD
:200D1E00227582012275450075462475470090000075F000120F8D9000017480F090000379
:200D3E0023F0900004741FF07524009000241204DF7525007582012275450075460C754738
:200D5E000090000075F000120F8D9000037408F090000623F09000087403F090000A14F08D
:200D7E0075240090000C1204DF7525007582012275450075460875470090000075F0001237
:200D9E000F8D9000007403F09000027480F07524009000041204DF7525007582012275459C
:200DBE000075461275470090000075F000120F8D9000007470F09000027402F09000077482
:200DDE000AF090000C743AF07524009000121204DF75250075820122AF35BF0503020EF72B
:200DFE00BF0602801EBF0702803CBF08028058BF09028068BF5603020E8ABFBF03020F4E07
:200E1E00020F85AF367E00AC377D00EC4206ED42078E828F83E0900000F075240090000145
:200E3E001204DF020F89AF367E00AC377D00EC4206ED42078E828F83E538F0752400900080
:200E5E00011204DF020F89A9368707900000EFF07524009000011204DF020F89A936A73792
:200E7E007524009000011204DF020F8975450075460075470290000075F000120F8D90F441
:200E9E0080E4F090F61814F090F60814F090F40004F090F41EE0FF30E0F890F4007490F033
:200EBE0090F404E4F07E007F008E0474002FFD90F408E0FB8C828D83F00EBE00010FC3EE87
:200EDE009406EF6480948040E07524009002001204DF752500758201227545007546107585
:200EFE00470290000075F000120F8D900094E4F09000957499F09000967453F090017A7472
:200F1E0056F090017B7452F090017E7423F090017F7403F09002007449F09002017446F022
:200F3E007524009002101204DF7525007582012290FA147407F090F747E054EFF090FA1526
:200F5E007406F090FA38E04401F090F08FE4F090FA68E054F7F090FA6AE054F7F090FA4861
:0F0F7E00E054FEFFF0800475820022758200228D
:06005000E478FFF6D8FD84
:1F0F8D00AC82AD83AE46AF47BE0004EF600C1F0FE545120FACA3DEFADFF88C828D832229
:20002E007900E94400601B7A009030CE780775A060E493F2A308B8000205A0D9F4DAF27514
:02004E00A0FF11
:1B0FAC0020F71130F6138883A88220F509F6A8837583002280FEF280F5F02244
:200FC7007A10E4FBFCE58225E0F582E58333F583EB33FBEC33FCEB9545F5F0EC95464006C4
:090FE700FCABF0438201DADD22CB
:200056007800E84400600A790075A060E4F309D8FC7807E84400600C7901906000E4F0A3E2
:04007600D8FCD9FADF
:0D002100758147121028E582600302001E61
:200FF000C2D5E58330E70DD2D5E4C39582F582E49583F583E54630E70DB2D5E4C39545F522
:1810100045E49546F546120FC730D50BE4C39582F582E49583F58322C6
:0410280075820022AB
:00000001FF
